:10000000C0810020CD060000C9060000C90600001E
:10001000C9060000C9060000C90600000000000073
:10002000000000000000000000000000D1040000FB
:10003000C906000000000000010500006505000081
:10004000C9060000C9060000C9060000C906000074
:10005000C9060000C9060000C9060000C906000064
:10006000C9060000C9060000C9060000C906000054
:10007000C9060000C9060000C9060000C906000044
:10008000C9060000C9060000C9060000C906000034
:10009000C9060000C9060000C9060000C906000024
:1000A000C9060000C9060000C9060000C906000014
:1000B000C9060000C9060000C9060000C906000004
:1000C000C9060000C9060000C9060000C9060000F4
:1000D000C9060000C9060000C9060000C9060000E4
:1000E000C9060000C9060000000000000000000072
:1000F0000000000025060000C9060000C906000037
:10010000C9060000C9060000C9060000C9060000B3
:10011000C9060000C9060000C9060000C9060000A3
:10012000C9060000C9060000C9060000C906000093
:10013000C9060000C9060000C9060000C906000083
:10014000C9060000C9060000C9060000C906000073
:10015000C9060000C9060000000000000000000001
:10016000000000000000000000000000000000008F
:10017000000000000000000061040000C90600004B
:10018000C9060000C9060000C9060000C906000033
:1001900000000000C9060000C9060000C9060000F2
:1001A000C9060000C9060000C9060000C906000013
:1001B000C9060000C9060000C9060000C906000003
:1001C000C9060000C9060000C9060000C9060000F3
:1001D000C9060000C9060000C9060000C9060000E3
:1001E000C9060000C9060000C9060000C9060000D3
:1001F000C9060000C9060000C9060000C9060000C3
:10020000C90600000000000000000000C906000050
:10021000C9060000C9060000C9060000C9060000A2
:10022000C9060000C9060000C9060000C906000092
:10023000C9060000C9060000C9060000C906000082
:10024000C9060000C9060000C9060000C906000072
:10025000C9060000C9060000C9060000C906000062
:10026000000000000348044B834202D0034B03B15B
:1002700018477047400B0000400B000000000000D2
:10028000054806490B1AD90F01EBA301491002D00A
:10029000034B03B118477047400B0000400B0000B0
:1002A0000000000010B5064C237843B9FFF7DAFFD1
:1002B000044B13B10448AFF300800123237010BD39
:1002C0001400002000000000400B000008B5044BA3
:1002D0001BB104490448AFF30080BDE80840CFE7F4
:1002E0000000000018000020400B000043684B6035
:1002F0009A688A609A68516099600368086101335E
:1003000003607047D0E9011203698A60516059683F
:10031000814208BF5A60002202611A68013A1A60DD
:1003200018687047C36903B118477047036A03B17F
:1003300018477047436A03B11847704738B50D46F0
:10034000044610B1081E18BF01200849084B41227D
:100350009847084B29462046984728B9064B6360C2
:10036000064BA360064BE36038BD00BF040B0000E2
:10037000F505000085030000250300002D030000A3
:10038000350300008B6943F0010330B501608B61D8
:100390008B69DB07FCD58B69B1F1844F43F0020315
:1003A0008B6146D12A4B2B4C84611A468C6942F8EA
:1003B000040B294D8C6192B200248C6042F400320F
:1003C000CD6140F63325CD60C1F8A02003F12402B1
:1003D00092B242F00072C1F8BC40C1F8C840C1F806
:1003E000C02003F1440292B242F40032C1F8F0207E
:1003F0002822C1F8802003F154025C3392B29BB2F0
:1004000042F4003243F40033C1F88420C1F888304C
:10041000124BC1F890404FF48042C3F88820BFF3DC
:100420004F8FBFF36F8FC3F888219A600368012252
:10043000DA6503689A6922F002029A619A6922F0E9
:1004400001029A61986910F00100FBD130BD00BF34
:100450003000002000000020070A020600E100E052
:1004600038B5174B1C6823681D6DE80702D5A368D3
:1004700020469847AA0502D5636820469847AB01F5
:1004800003D5E368032120469847E80103D5E368D4
:100490000021204698472A0209D52268E368526C59
:1004A00012F0200F14BF02210121204698472B078C
:1004B00003D5E36804212046984723681D6538BDAD
:1004C00030000020000000000000000000000000DC
:1004D000074B19680868B0E8F04F80F30988BFF34C
:1004E0006F8F4FF0000080F311887047AFF30080EA
:1004F0003C0100200000000000000000000000009F
:10050000EFF30980BFF36F8F154B1A681EF0100FC1
:1005100008BF20ED108A20E9F04F10602DE9090096
:100520004FF0800080F31188BFF34F8FBFF36F8FC0
:1005300000F0A4F94FF0000080F3118809BC19689D
:100540000868B0E8F04F1EF0100F08BFB0EC108A3A
:1005500080F30988BFF36F8F704700BFAFF300804F
:100560003C01002008B54FF0800383F31188BFF3EE
:100570006F8FBFF34F8F064B984728B14FF0E023A2
:100580004FF08052C3F8042D002383F3118808BD77
:1005900081070000094A138810B59BB21380084BED
:1005A0009847084B9847084B9847084B9847BDE831
:1005B0001040074B40F6FF70184700BF0040004155
:1005C0005D060000FD05000019060000150600008C
:1005D000D5050000C30707D5044B054A1A6243F648
:1005E000FD7259681142FCD1704700BF001C0040E9
:1005F0000101010000B900BE70470000034B044A2E
:100600009A611A699207FCD5704700BF001000403C
:100610000626000370470000014B01225A71704703
:10062000000800400B4A937882B0DBB20193019B33
:10063000990705D5084B1B6813B1506802B01847DD
:10064000019BDB0704D5044B5B680BB1014AF4E75F
:1006500002B07047000002419C000020034BDA69A1
:1006600002F47C52DA6101221A74704700140040CF
:10067000064A0748136943F400331361054B4022CF
:10068000C3F8EC204FF08441034B184700080040AA
:10069000AC000020001C00403D03000010B5034BDF
:1006A0009847BDE81040024B184700BF9505000071
:1006B0007106000008B5014B9847FEE7C10600002F
:1006C000004B18479D060000FEE700001849194836
:1006D000814210B50AD0184BDA1C121A22F003021C
:1006E000C41EA34238BF0022144B9847144B154830
:1006F000DA1C121AC11E22F00302994288BF00229E
:10070000114B00219847114A114B22F07F029A6049
:10071000D3F8882042F47002C3F88820BFF34F8FCB
:10072000BFF36F8F0B4B98470B4B9847FEE700BF0B
:10073000400B000000000020140000202D090000E4
:10074000C001002014000020610A00000000000029
:1007500000ED00E0E5080000B5060000074BD3F807
:100760008420126822B94FF0FF32C3F88820704706
:10077000D3F88420D268D2685268F6E7D40000200B
:100780002DE9F84F394CD4F8D830002B66D1676E7C
:1007900001376766DFB9D4F884301B6843B14FF086
:1007A000800383F31188BFF36F8FBFF34F8FFEE792
:1007B000D4F88430D4F88020C4F88420C4F8803081
:1007C000D4F8E0300133C4F8E030294B9847D4F82E
:1007D0008830BB424FF000050FD9A36EDB6A1422AC
:1007E0005343E358022B28BF0125D4F8E830002BEF
:1007F0000CBF28460120BDE8F88FDFF87880DFF8CD
:1008000078904FF0140AD4F884301B6823B94FF065
:10081000FF33C4F88830E0E7D4F88430DB68DE6862
:1008200073689F42F5D306F1040B5846C047B36A7C
:1008300013B106F11800C047F06AD4F8D4309842DA
:1008400088BFC4F8D40059460AFB0040C847A36ECD
:10085000F26ADB6A9A4228BF0125D4E7D4F8E43073
:100860000133C4F8E4300025BFE700BFD400002006
:100870005D07000005030000ED020000184BD3F8EF
:10088000D82030B51AB10122C3F8E82030BDC3F832
:10089000E820D3F8D410142505FB01F298189C58D1
:1008A0008CB144680832646844601A44944204BFBE
:1008B00062684260142202FB01325268D2689A6672
:1008C000C3F8D410E2E741B94FF0800383F31188F5
:1008D000BFF36F8FBFF34F8FFEE70139DCE700BF37
:1008E000D400002070B50D4E0D4D761BB61006D00D
:1008F000002455F8043B01349847A642F9D1094E2B
:10090000094D761B00F00CF9B61006D0002455F8FE
:10091000043B01349847A642F9D170BD2C0B00006E
:100920002C0B0000300B00002C0B0000844641EA29
:10093000000313F003036DD1403A41D351F8043B57
:1009400040F8043B51F8043B40F8043B51F8043BA9
:1009500040F8043B51F8043B40F8043B51F8043B99
:1009600040F8043B51F8043B40F8043B51F8043B89
:1009700040F8043B51F8043B40F8043B51F8043B79
:1009800040F8043B51F8043B40F8043B51F8043B69
:1009900040F8043B51F8043B40F8043B51F8043B59
:1009A00040F8043B51F8043B40F8043B51F8043B49
:1009B00040F8043B51F8043B40F8043B403ABDD2B8
:1009C000303211D351F8043B40F8043B51F8043B5A
:1009D00040F8043B51F8043B40F8043B51F8043B19
:1009E00040F8043B103AEDD20C3205D351F8043BE9
:1009F00040F8043B043AF9D2043208D0D2071CBFB5
:100A000011F8013B00F8013B01D30B8803806046DD
:100A1000704700BF082A13D38B078DD010F0030353
:100A20008AD0C3F10403D21ADB071CBF11F8013BC3
:100A300000F8013B80D331F8023B20F8023B7BE712
:100A4000043AD9D3013A11F8013B00F8013BF9D23D
:100A50000B7803704B7843708B78837060467047D7
:100A6000830730B548D0541E002A3FD0CAB203468F
:100A700001E0013C3AD303F8012B9D07F9D1032C87
:100A80002DD9CDB245EA05250F2C45EA054536D9C5
:100A9000A4F1100222F00F0C03F1200EE6444FEAFD
:100AA000121C03F1100242E9045542E902551032CA
:100AB0007245F8D10CF1010214F00C0F03EB021295
:100AC00004F00F0C13D0ACF1040323F00303043340
:100AD000134442F8045B9342FBD10CF003042CB1A5
:100AE000CAB21C4403F8012B9C42FBD130BD6446C2
:100AF0001346002CF4D1F9E703461446BFE71A4623
:100B0000A446E0E72E2E2F68616C2F7372632F6866
:100B1000616C5F63616E5F6173796E632E63000069
:100B2000F8B500BFF8BC08BC9E467047CD02000077
:100B3000F8B500BFF8BC08BC9E467047A50200008F
:100B400034000020540000207400002084000020A5
:040B50008C000020F5
:00000001FF
